S01100006B61726F6C796665722E7372656344
S113000061C07BC07AC079C078C077C076C075C043
S113001074C04EC272C01FC270C06FC054C26DC0E3
S11300206CC06BC06AC02FC12EC12DC12CC12BC1A5
S11300302AC134C15AC122C13CC143C14AC141543D
S11300402B43574A41505F4355523D22504F434F33
S113005050484F4E45222C22506F636F4631463133
S1130060220D0A0041542B43494653520D0A000DF8
S11300700A0041542B434950434C4F53453D340DE2
S11300800A0041542B43495053544152543D342C9B
S113009022554450222C223235352E3235352E321B
S11300A035352E323535222C313131322C38303839
S11300B0322C300D0A0041542B4349504D55583DC4
S11300C0310D0A0011241FBECFE5D4E0DEBFCDBF41
S11300D013E0A0E6B0E0E6E0FAE002C005900D927D
S11300E0A439B107D9F724E0A4E9B3E001C01D9213
S11300F0A831B207E1F78DD284C482CF87B1806E74
S113010087B987B1807F87B986B18F6886B908952A
S113011083B7897F83BF83B7816083BF89B78160D9
S113012089BF089580E292E09DD3892B09F43FC0F2
S113013089E292E097D3892BE9F589E592E092D39D
S1130140892BD9F586E692E08DD3892BC9F583E70F
S113015092E088D3892BB9F580E892E083D3892B88
S1130160A9F58DE892E07ED3892B99F58AE992E08E
S113017079D3892B89F585E492E074D3892B79F5B9
S113018086E392E06FD3892B69F582EC92E06AD31F
S1130190892B59F584EB92E065D3892B49F587EADD
S11301A092E060D3892B39F18BE090E008958CE2E2
S11301B090E0089588E090E0089580E090E008954C
S11301C081E090E0089582E090E0089583E090E07B
S11301D0089584E090E0089585E090E0089586E035
S11301E090E0089587E090E0089589E090E0089514
S11301F08AE090E008958CE290E008958091940361
S113020090919503892BD1F32FEF8FE394E1215043
S113021080409040E1F700C00000109295031092D6
S113022094030895CF93DF93EC018EEF9FEF59D29F
S1130230E5DF82E090E055D21C161D0674F480E0E0
S113024090E029E939EB44E0215030404040E1F7A7
S113025000000196C817D907A1F780E090E041D2C9
S1130260DF91CF910895CF93DF935CDFEC018C3065
S11302709105B8F5FC01ED5EFF4F099480EE90E026
S1130280C1D25DD232C04AE063E871E087D3CE01C7
S1130290C9DF83E891E0B6D252D227C029D0B9D0C1
S11302A04AE063E871E07AD383E891E0ABD247D2C5
S11302B01CC08EEF9FEF15D285E891E0A3D23FD208
S11302C014C082E090E00DD28CE991E09BD237D249
S11302D00CC080E090E005D284EB91E093D22FD261
S11302E004C086EC91E08ED22AD2DF91CF9108959A
S11302F09FB7F894979A8F9A9798E1E5F4E031972D
S1130300F1F700C000008F98F6EFFA95F1F780B38B
S1130310E0E7F1E03197F1F700C0979A8F9AE1E5B1
S1130320F4E03197F1F700C000009FBF881F8827D1
S1130330881F08956FB7F89428E030E091E04FB734
S1130340F894979A8F9A9798582F592351F053E11C
S11303505A95F1F700C0979A54EC5A95F1F700C0FA
S113036008C054EC5A95F1F700C0979A55E05A9595
S1130370F1F74FBF990F2150310909F76FBF089565
S11303809FB7F894979A8F9A979825E02A95F1F752
S11303908F9883E18A95F1F700C080B323E92A9509
S11303A0F1F700C09FBF881F8827881F0895FF9218
S11303B00F931F93CF93DF93FFB6F89408E010E0F8
S11303C0C1E0D0E0DDDF8C9FC0011124D82BCC0F1D
S11303D001501109B9F7FFBE8D2FDF91CF911F9105
S11303E00F91FF90089584DF8CECA4DF84E4A2DFF6
S11303F00895CF937DDF8CEC9DDF8EEB9BDFD7DF01
S1130400C82FD5DF90E0982F88278C0F911DCF91AE
S11304100895E9DF2FEF8FE796E121508040904067
S1130420E1F700C00000E5DF99230CF40F969595E1
S1130430879595958795959587959595879508952D
S113044087E089B9599A8AB188698AB980B586687A
S113045080BD899A08951F920F920FB60F921124AE
S11304608F939F93EF93FF93E0919E03F0919F03EB
S11304708CB1E056FC4F808380919E0390919F0342
S11304808336910548F480919E0390919F030196D1
S113049090939F0380939E03FF91EF919F918F917F
S11304A00F900FBE0F901F9018951092A0030895FF
S11304B01F920F920FB60F921124369A0F900FBE0F
S11304C00F901F9018951F920F920FB60F92112440
S11304D02F933F934F935F936F937F938F939F9348
S11304E0AF93BF93CF93DF93EF93FF9384B195B111
S11304F090939B0380939A0380919A0390919B031A
S1130500892B39F1A0916400B09165002091960384
S1130510309197034091980350919903C0919A03A5
S1130520D0919B03E0916400F09165001197C9D1CB
S11305306C0F7D1F811D911D9F01FF0F440B550BF7
S1130540A4D1209396033093970340939803509338
S113055099038091620090916300409196035091B9
S113056097036091980370919903092E000CAA0BCC
S1130570BB0B481759076A077B0774F08AE290E0BF
S11305809BBD8ABD81E090E0909361008093600000
S11305909093950380939403FF91EF91DF91CF9112
S11305A0BF91AF919F918F917F916F915F914F9187
S11305B03F912F910F900FBE0F901F90189580912F
S11305C09C0390919D03892B19F1939A2FEF8FE34C
S11305D092E0215080409040E1F700C000009398E1
S11305E02FEF8FE392E0215080409040E1F700C06C
S11305F0000080919C0390919D03019790939D032B
S113060080939C0380919C0390919D03892BE9F630
S1130610089555D080E090E064D08B9A11DF2FEFDD
S11306208FEF9CE2215080409040E1F700C0000031
S11306307894D9D082E790E0A0D0CED02FEF8FE786
S113064096E1215080409040E1F700C0000084E62C
S113065090E093D08FEC92E0D5D071D087EF92E008
S1130660D1D06DD04BDD54DD85E090E090939D03B7
S113067080939C03A4DF10929F0310929E03209109
S11306809E0330919F0380919E0390919F032817AE
S11306903907C9F354D0E7DD2FEF8FE796E12150F6
S11306A080409040E1F700C0000010929603109241
S11306B097031092980310929903F7DEDCCFB99A4E
S11306C08FB582688FBD8FB58E7B8FBD8EB58C61E3
S11306D08EBD8EB58C7F8EBD8FE392E097BD86BDB7
S11306E008950097C1F03CF48E3F2FEF920749F034
S11306F0019661F01FC08130910591F00297A9F035
S113070019C087E190E09BBD8ABD089586E290E020
S11307109BBD8ABD08958AE290E09BBD8ABD089581
S11307208FE290E09BBD8ABD089581E490E09BBD7B
S11307308ABD08958AE290E09BBD8ABD0895F8942D
S113074084E690E040919E0350919F037894E3E304
S1130750F7E03197F1F7F89420919E0330919F03CD
S11307604217530711F0019769F778948FEF97E4D4
S11307700197F1F700C000000895CF93DF93EC01D7
S1130780DED0FE019E01280F391F04C05D9BFECF01
S113079095919CB9E217F307C9F7D1DFDF91CF91A7
S11307A00895CF93DF93DC01EC0120E030E006C034
S11307B05D9BFECF89918CB92F5F3F4FFD01019066
S11307C00020E9F73197EA1BFB0B2E173F0780F354
S11307D0B6DFDF91CF91089586EB90E0CEDF82E81B
S11307E090E0CBDF08958EE390E0C7DFA8DF2FEF22
S11307F08FE79AEC215080409040E1F700C0000060
S11308009EDF08950F931F93CF93DF93CDB7DEB789
S113081060970FB6F894DEBF0FBECDBF8C0186E89B
S113082093E0BFDFF80101900020E9F7CF010197C1
S11308304AE0BE016F5F7F4F801B910BAFD0CE01AA
S11308400196AFDF8FE690E098DFC801AADF6096DB
S11308500FB6F894DEBF0FBECDBFDF91CF911F91CD
S11308600F910895FC0101900020E9F731979F0151
S1130870281B390B60919E0370919F036F5F7F4F1C
S1130880AC0180EA93E064D00895052E97FB16F43A
S113089000940FD057FD05D01AD007FC02D046F4BF
S11308A008C050954095309521953F4F4F4F5F4F6D
S11308B0089590958095709561957F4F8F4F9F4FC8
S11308C00895B7FF26C025D0821B930B0895A1E29B
S11308D01A2EAA1BBB1BFD010DC0AA1FBB1FEE1FB6
S11308E0FF1FA217B307E407F50720F0A21BB30B01
S11308F0E40BF50B661F771F881F991F1A9469F77D
S113090060957095809590959B01AC01BD01CF01D8
S1130910089509D0A59F900DB49F900DA49F800DBC
S1130920911D11240895A29FB001B39FC001A39FFC
S113093001D0B29F700D811D1124911D0895FC01F9
S113094005900020E9F7809590958E0F9F1F0895DC
S11309502115310511F11F930F93240F351F680FD3
S1130960791FFA011191AF01DC01A617B70780F4D2
S11309700D910117D1F7CD01FA01E217F30750F4F5
S1130980A617B70728F40D9101900015B1F3ECCF29
S113099081E090E001970F911F910895BB274A30A1
S11309A031F4992322F4BDE2909581959F4F01C0C3
S11309B0BB27FB015527AA27880F991FAA1FA41735
S11309C010F0A41B83955051B9F7A05DAA3308F029
S11309D0A95DA193009779F7B111B1931192CB015D
S11309E000C0DC01FC01672F71917723E1F7329796
S11309F004C07C916D9370836291AE17BF07C8F3F6
S1090A000895F894FFCFF5
S1130A0601004C1D6400436F756E74657220636C3F
S1130A166F636B2D776973652064697265637469A6
S1130A266F6E20696E69746961746564200A004397
S1130A366C6F636B2D776973652064697265637483
S1130A46696F6E20696E69746961746564200A0051
S1130A56536572766F20686173206265656E2073D4
S1130A66746F70706564200A004D656173757265F4
S1130A76642054656D70657261747572653A200000
S1130A864C656674202D3E2069737375696E672004
S1130A96436F756E74657220636C6F636B2D776933
S1130AA67365206D6F76656D656E74200A2C205211
S1130AB669676874202D3E2069737375696E6720B3
S1130AC6636C6F636B2D77697365206D6F76656DE7
S1130AD6656E74200A2C2053746F70202D3E206995
S1130AE6737375696E672073746F7020636F6D6DB1
S1130AF6616E64200A2C2048656C70202D3E2048C7
S1130B06656C70206D656E75200A00556E7265639E
S1130B166F676E697A656420636F6D6D616E6421BB
S1130B26200A0030004B616C692070636861207391
S1130B366572766F2077206C65776F004B616C6900
S1130B46207063686120736572766F2077207072F7
S1130B5661776F004B616C69206A757A206E6965EE
S1130B66207063686100457863757365206D652C34
S1130B76207768617420746865206675636B21004C
S1130B86536572766F20697320616C72656164794E
S1130B96206D6F76696E6720696E207468617420B3
S1130BA6646972656374696F6E210A0053657276AF
S1130BB66F2069736E2774206D6F76696E670A00FD
S1130BC6436F6D6D616E643A00436F6D6D616E6463
S1130BD63A48656C7000436F6D6D616E643A537488
S1130BE66174757300436F6D6D616E643A54656D1F
S1130BF6706572617475726500436F6D6D616E64C4
S1130C063A5365743000436F6D6D616E643A536593
S1130C16743100436F6D6D616E643A5365743200CE
S1130C26436F6D6D616E643A5365743300436F6D43
S1130C366D616E643A5365743400436F6D6D616E15
S1130C46643A5365743500436F6D6D616E643A534F
S1130C56746F7000436F6D6D616E643A52696768B4
S1130C667400436F6D6D616E643A4C65667400433F
S1130C766F6E74726F6C6C65722072656164792034
S1130C86666F7220696E737472756374696F6E73BE
S1130C962E2E2E20200A004C65667420202D3E2020
S1130CA669737375696E6720636F756E74657220F8
S1130CB6636C6F636B2D77697365206D6F76656DF5
S1130CC6656E742C0A5269676874202D3E20697318
S1130CD67375696E6720636C6F636B2D77697365D3
S1130CE6206D6F76656D656E742C0A53746F702073
S1130CF6202D3E2069737375696E672073746F7057
S1130D0620636F6D6D616E642C200A48656C7020DB
S1130D16202D3E2048656C70206D656E75200A0096
S1130D264552524F520041542B43495053454E4469
S1070D363D342C0018
S9030000FC
